{
  "contractName": "DrugTraceability",
  "abi": [
    {
      "inputs": [],
      "stateMutability": "nonpayable",
      "type": "constructor"
    },
    {
      "anonymous": false,
      "inputs": [
        {
          "indexed": false,
          "internalType": "string",
          "name": "name",
          "type": "string"
        },
        {
          "indexed": false,
          "internalType": "string",
          "name": "manufacturer",
          "type": "string"
        },
        {
          "indexed": false,
          "internalType": "uint256",
          "name": "batchNumber",
          "type": "uint256"
        },
        {
          "indexed": false,
          "internalType": "uint256",
          "name": "timestamp",
          "type": "uint256"
        }
      ],
      "name": "DrugAdded",
      "type": "event"
    },
    {
      "inputs": [],
      "name": "contractVersion",
      "outputs": [
        {
          "internalType": "string",
          "name": "",
          "type": "string"
        }
      ],
      "stateMutability": "view",
      "type": "function"
    },
    {
      "inputs": [
        {
          "internalType": "uint256",
          "name": "",
          "type": "uint256"
        }
      ],
      "name": "drugs",
      "outputs": [
        {
          "internalType": "string",
          "name": "name",
          "type": "string"
        },
        {
          "internalType": "string",
          "name": "manufacturer",
          "type": "string"
        },
        {
          "internalType": "uint256",
          "name": "batchNumber",
          "type": "uint256"
        },
        {
          "internalType": "uint256",
          "name": "timestamp",
          "type": "uint256"
        }
      ],
      "stateMutability": "view",
      "type": "function"
    },
    {
      "inputs": [],
      "name": "owner",
      "outputs": [
        {
          "internalType": "address",
          "name": "",
          "type": "address"
        }
      ],
      "stateMutability": "view",
      "type": "function"
    },
    {
      "inputs": [
        {
          "internalType": "string",
          "name": "_name",
          "type": "string"
        },
        {
          "internalType": "string",
          "name": "_manufacturer",
          "type": "string"
        },
        {
          "internalType": "uint256",
          "name": "_batchNumber",
          "type": "uint256"
        }
      ],
      "name": "addDrug",
      "outputs": [],
      "stateMutability": "nonpayable",
      "type": "function"
    },
    {
      "inputs": [],
      "name": "getDrugs",
      "outputs": [
        {
          "components": [
            {
              "internalType": "string",
              "name": "name",
              "type": "string"
            },
            {
              "internalType": "string",
              "name": "manufacturer",
              "type": "string"
            },
            {
              "internalType": "uint256",
              "name": "batchNumber",
              "type": "uint256"
            },
            {
              "internalType": "uint256",
              "name": "timestamp",
              "type": "uint256"
            }
          ],
          "internalType": "struct DrugTraceability.Drug[]",
          "name": "",
          "type": "tuple[]"
        }
      ],
      "stateMutability": "view",
      "type": "function"
    }
  ],
  "bytecode": "0x60806040526040518060400160405280600381526020017f312e300000000000000000000000000000000000000000000000000000000000815250600190816200004a919062000391565b5034801562000057575f80fd5b50335f806101000a81548173ffffffffffffffffffffffffffffffffffffffff021916908373ffffffffffffffffffffffffffffffffffffffff1602179055505f73ffffffffffffffffffffffffffffffffffffffff165f8054906101000a900473ffffffffffffffffffffffffffffffffffffffff1673ffffffffffffffffffffffffffffffffffffffff160362000127576040517f08c379a00000000000000000000000000000000000000000000000000000000081526004016200011e90620004d3565b60405180910390fd5b620004f3565b5f81519050919050565b7f4e487b71000000000000000000000000000000000000000000000000000000005f52604160045260245ffd5b7f4e487b71000000000000000000000000000000000000000000000000000000005f52602260045260245ffd5b5f6002820490506001821680620001a957607f821691505b602082108103620001bf57620001be62000164565b5b50919050565b5f819050815f5260205f209050919050565b5f6020601f8301049050919050565b5f82821b905092915050565b5f60088302620002237fffffffffffffffffffffffffffffffffffffffffffffffffffffffffffffffff82620001e6565b6200022f8683620001e6565b95508019841693508086168417925050509392505050565b5f819050919050565b5f819050919050565b5f62000279620002736200026d8462000247565b62000250565b62000247565b9050919050565b5f819050919050565b620002948362000259565b620002ac620002a38262000280565b848454620001f2565b825550505050565b5f90565b620002c2620002b4565b620002cf81848462000289565b505050565b5b81811015620002f657620002ea5f82620002b8565b600181019050620002d5565b5050565b601f82111562000345576200030f81620001c5565b6200031a84620001d7565b810160208510156200032a578190505b620003426200033985620001d7565b830182620002d4565b50505b505050565b5f82821c905092915050565b5f620003675f19846008026200034a565b1980831691505092915050565b5f62000381838362000356565b9150826002028217905092915050565b6200039c826200012d565b67ffffffffffffffff811115620003b857620003b762000137565b5b620003c4825462000191565b620003d1828285620002fa565b5f60209050601f83116001811462000407575f8415620003f2578287015190505b620003fe858262000374565b8655506200046d565b601f1984166200041786620001c5565b5f5b82811015620004405784890151825560018201915060208501945060208101905062000419565b868310156200046057848901516200045c601f89168262000356565b8355505b6001600288020188555050505b505050505050565b5f82825260208201905092915050565b7f496e76616c6964206465706c6f796572206164647265737300000000000000005f82015250565b5f620004bb60188362000475565b9150620004c88262000485565b602082019050919050565b5f6020820190508181035f830152620004ec81620004ad565b9050919050565b610e8a80620005015f395ff3fe608060405234801561000f575f80fd5b5060043610610055575f3560e01c80635fb07a62146100595780638da5cb5b1461007757806391c4fb8214610095578063a0a8e460146100b1578063fca5e61e146100cf575b5f80fd5b610061610102565b60405161006e91906107a3565b60405180910390f35b61007f610291565b60405161008c9190610802565b60405180910390f35b6100af60048036038101906100aa9190610982565b6102b4565b005b6100b961040c565b6040516100c69190610a52565b60405180910390f35b6100e960048036038101906100e49190610a72565b610498565b6040516100f99493929190610aac565b60405180910390f35b60606002805480602002602001604051908101604052809291908181526020015f905b82821015610288578382905f5260205f2090600402016040518060800160405290815f8201805461015590610b2a565b80601f016020809104026020016040519081016040528092919081815260200182805461018190610b2a565b80156101cc5780601f106101a3576101008083540402835291602001916101cc565b820191905f5260205f20905b8154815290600101906020018083116101af57829003601f168201915b505050505081526020016001820180546101e590610b2a565b80601f016020809104026020016040519081016040528092919081815260200182805461021190610b2a565b801561025c5780601f106102335761010080835404028352916020019161025c565b820191905f5260205f20905b81548152906001019060200180831161023f57829003601f168201915b505050505081526020016002820154815260200160038201548152505081526020019060010190610125565b50505050905090565b5f8054906101000a900473ffffffffffffffffffffffffffffffffffffffff1681565b5f8054906101000a900473ffffffffffffffffffffffffffffffffffffffff1673ffffffffffffffffffffffffffffffffffffffff163373ffffffffffffffffffffffffffffffffffffffff1614610341576040517f08c379a000000000000000000000000000000000000000000000000000000000815260040161033890610bca565b60405180910390fd5b6002604051806080016040528085815260200184815260200183815260200142815250908060018154018082558091505060019003905f5260205f2090600402015f909190919091505f820151815f01908161039d9190610d85565b5060208201518160010190816103b39190610d85565b50604082015181600201556060820151816003015550507f1fcbf3f6dbb8562779ccf421dbefab2c4939a7fbcd90fa40b83daf02fb4215f2838383426040516103ff9493929190610aac565b60405180910390a1505050565b6001805461041990610b2a565b80601f016020809104026020016040519081016040528092919081815260200182805461044590610b2a565b80156104905780601f1061046757610100808354040283529160200191610490565b820191905f5260205f20905b81548152906001019060200180831161047357829003601f168201915b505050505081565b600281815481106104a7575f80fd5b905f5260205f2090600402015f91509050805f0180546104c690610b2a565b80601f01602080910402602001604051908101604052809291908181526020018280546104f290610b2a565b801561053d5780601f106105145761010080835404028352916020019161053d565b820191905f5260205f20905b81548152906001019060200180831161052057829003601f168201915b50505050509080600101805461055290610b2a565b80601f016020809104026020016040519081016040528092919081815260200182805461057e90610b2a565b80156105c95780601f106105a0576101008083540402835291602001916105c9565b820191905f5260205f20905b8154815290600101906020018083116105ac57829003601f168201915b5050505050908060020154908060030154905084565b5f81519050919050565b5f82825260208201905092915050565b5f819050602082019050919050565b5f81519050919050565b5f82825260208201905092915050565b5f5b8381101561063f578082015181840152602081019050610624565b5f8484015250505050565b5f601f19601f8301169050919050565b5f61066482610608565b61066e8185610612565b935061067e818560208601610622565b6106878161064a565b840191505092915050565b5f819050919050565b6106a481610692565b82525050565b5f608083015f8301518482035f8601526106c4828261065a565b915050602083015184820360208601526106de828261065a565b91505060408301516106f3604086018261069b565b506060830151610706606086018261069b565b508091505092915050565b5f61071c83836106aa565b905092915050565b5f602082019050919050565b5f61073a826105df565b61074481856105e9565b935083602082028501610756856105f9565b805f5b8581101561079157848403895281516107728582610711565b945061077d83610724565b925060208a01995050600181019050610759565b50829750879550505050505092915050565b5f6020820190508181035f8301526107bb8184610730565b905092915050565b5f73ffffffffffffffffffffffffffffffffffffffff82169050919050565b5f6107ec826107c3565b9050919050565b6107fc816107e2565b82525050565b5f6020820190506108155f8301846107f3565b92915050565b5f604051905090565b5f80fd5b5f80fd5b5f80fd5b5f80fd5b7f4e487b71000000000000000000000000000000000000000000000000000000005f52604160045260245ffd5b61086a8261064a565b810181811067ffffffffffffffff8211171561088957610888610834565b5b80604052505050565b5f61089b61081b565b90506108a78282610861565b919050565b5f67ffffffffffffffff8211156108c6576108c5610834565b5b6108cf8261064a565b9050602081019050919050565b828183375f83830152505050565b5f6108fc6108f7846108ac565b610892565b90508281526020810184848401111561091857610917610830565b5b6109238482856108dc565b509392505050565b5f82601f83011261093f5761093e61082c565b5b813561094f8482602086016108ea565b91505092915050565b61096181610692565b811461096b575f80fd5b50565b5f8135905061097c81610958565b92915050565b5f805f6060848603121561099957610998610824565b5b5f84013567ffffffffffffffff8111156109b6576109b5610828565b5b6109c28682870161092b565b935050602084013567ffffffffffffffff8111156109e3576109e2610828565b5b6109ef8682870161092b565b9250506040610a008682870161096e565b9150509250925092565b5f82825260208201905092915050565b5f610a2482610608565b610a2e8185610a0a565b9350610a3e818560208601610622565b610a478161064a565b840191505092915050565b5f6020820190508181035f830152610a6a8184610a1a565b905092915050565b5f60208284031215610a8757610a86610824565b5b5f610a948482850161096e565b91505092915050565b610aa681610692565b82525050565b5f6080820190508181035f830152610ac48187610a1a565b90508181036020830152610ad88186610a1a565b9050610ae76040830185610a9d565b610af46060830184610a9d565b95945050505050565b7f4e487b71000000000000000000000000000000000000000000000000000000005f52602260045260245ffd5b5f6002820490506001821680610b4157607f821691505b602082108103610b5457610b53610afd565b5b50919050565b7f4f6e6c79206f776e65722063616e20706572666f726d207468697320616374695f8201527f6f6e000000000000000000000000000000000000000000000000000000000000602082015250565b5f610bb4602283610a0a565b9150610bbf82610b5a565b604082019050919050565b5f6020820190508181035f830152610be181610ba8565b9050919050565b5f819050815f5260205f209050919050565b5f6020601f8301049050919050565b5f82821b905092915050565b5f60088302610c447fffffffffffffffffffffffffffffffffffffffffffffffffffffffffffffffff82610c09565b610c4e8683610c09565b95508019841693508086168417925050509392505050565b5f819050919050565b5f610c89610c84610c7f84610692565b610c66565b610692565b9050919050565b5f819050919050565b610ca283610c6f565b610cb6610cae82610c90565b848454610c15565b825550505050565b5f90565b610cca610cbe565b610cd5818484610c99565b505050565b5b81811015610cf857610ced5f82610cc2565b600181019050610cdb565b5050565b601f821115610d3d57610d0e81610be8565b610d1784610bfa565b81016020851015610d26578190505b610d3a610d3285610bfa565b830182610cda565b50505b505050565b5f82821c905092915050565b5f610d5d5f1984600802610d42565b1980831691505092915050565b5f610d758383610d4e565b9150826002028217905092915050565b610d8e82610608565b67ffffffffffffffff811115610da757610da6610834565b5b610db18254610b2a565b610dbc828285610cfc565b5f60209050601f831160018114610ded575f8415610ddb578287015190505b610de58582610d6a565b865550610e4c565b601f198416610dfb86610be8565b5f5b82811015610e2257848901518255600182019150602085019450602081019050610dfd565b86831015610e3f5784890151610e3b601f891682610d4e565b8355505b6001600288020188555050505b50505050505056fea2646970667358221220583b3ae3ebc75cb185620754ef9cd0b59c372541f9d6006d82ad6bf8e433821164736f6c63430008140033",
  "immutableReferences": {},
  "source": "// SPDX-License-Identifier: MIT\r\npragma solidity ^0.8.20;\r\n\r\ncontract DrugTraceability {\r\n    address public owner;\r\n    string public contractVersion = \"1.0\"; // Version control\r\n\r\n    struct Drug {\r\n        string name;\r\n        string manufacturer;\r\n        uint256 batchNumber;\r\n        uint256 timestamp;\r\n    }\r\n\r\n    Drug[] public drugs;\r\n\r\n    event DrugAdded(string name, string manufacturer, uint256 batchNumber, uint256 timestamp);\r\n\r\n    modifier onlyOwner() {\r\n        require(msg.sender == owner, \"Only owner can perform this action\");\r\n        _;\r\n    }\r\n\r\n    constructor() {\r\n        owner = msg.sender;\r\n        require(owner != address(0), \"Invalid deployer address\");\r\n    }\r\n\r\n    function addDrug(string memory _name, string memory _manufacturer, uint256 _batchNumber) public onlyOwner {\r\n        drugs.push(Drug(_name, _manufacturer, _batchNumber, block.timestamp));\r\n        emit DrugAdded(_name, _manufacturer, _batchNumber, block.timestamp);\r\n    }\r\n\r\n    function getDrugs() public view returns (Drug[] memory) {\r\n        return drugs;\r\n    }\r\n}\r\n",
  "sourcePath": "C:\\Users\\91915\\OneDrive\\Desktop\\drug-traceability\\drug-traceability-blockchain\\contracts\\DrugTraceability.sol",
  "compiler": {
    "name": "solc",
    "version": "0.8.20+commit.a1b79de6.Emscripten.clang"
  },
  "schemaVersion": "3.4.16",
  "updatedAt": "2025-03-30T10:41:33.758Z",
  "devdoc": {
    "kind": "dev",
    "methods": {},
    "version": 1
  },
  "userdoc": {
    "kind": "user",
    "methods": {},
    "version": 1
  }
}